{
  "_format": "hh-sol-artifact-1",
  "contractName": "Domains",
  "sourceName": "contracts/Domains.sol",
  "abi": [
    {
      "inputs": [
        {
          "internalType": "string",
          "name": "_tld",
          "type": "string"
        }
      ],
      "stateMutability": "payable",
      "type": "constructor"
    },
    {
      "inputs": [],
      "name": "AlreadyRegistered",
      "type": "error"
    },
    {
      "inputs": [
        {
          "internalType": "string",
          "name": "name",
          "type": "string"
        }
      ],
      "name": "InvalidName",
      "type": "error"
    },
    {
      "inputs": [],
      "name": "Unauthorized",
      "type": "error"
    },
    {
      "anonymous": false,
      "inputs": [
        {
          "indexed": true,
          "internalType": "address",
          "name": "owner",
          "type": "address"
        },
        {
          "indexed": true,
          "internalType": "address",
          "name": "approved",
          "type": "address"
        },
        {
          "indexed": true,
          "internalType": "uint256",
          "name": "tokenId",
          "type": "uint256"
        }
      ],
      "name": "Approval",
      "type": "event"
    },
    {
      "anonymous": false,
      "inputs": [
        {
          "indexed": true,
          "internalType": "address",
          "name": "owner",
          "type": "address"
        },
        {
          "indexed": true,
          "internalType": "address",
          "name": "operator",
          "type": "address"
        },
        {
          "indexed": false,
          "internalType": "bool",
          "name": "approved",
          "type": "bool"
        }
      ],
      "name": "ApprovalForAll",
      "type": "event"
    },
    {
      "anonymous": false,
      "inputs": [
        {
          "indexed": false,
          "internalType": "string",
          "name": "name",
          "type": "string"
        },
        {
          "indexed": false,
          "internalType": "uint256",
          "name": "tokenId",
          "type": "uint256"
        }
      ],
      "name": "DomainMinted",
      "type": "event"
    },
    {
      "anonymous": false,
      "inputs": [
        {
          "indexed": true,
          "internalType": "address",
          "name": "from",
          "type": "address"
        },
        {
          "indexed": true,
          "internalType": "address",
          "name": "to",
          "type": "address"
        },
        {
          "indexed": true,
          "internalType": "uint256",
          "name": "tokenId",
          "type": "uint256"
        }
      ],
      "name": "Transfer",
      "type": "event"
    },
    {
      "inputs": [
        {
          "internalType": "address",
          "name": "to",
          "type": "address"
        },
        {
          "internalType": "uint256",
          "name": "tokenId",
          "type": "uint256"
        }
      ],
      "name": "approve",
      "outputs": [],
      "stateMutability": "nonpayable",
      "type": "function"
    },
    {
      "inputs": [
        {
          "internalType": "address",
          "name": "owner",
          "type": "address"
        }
      ],
      "name": "balanceOf",
      "outputs": [
        {
          "internalType": "uint256",
          "name": "",
          "type": "uint256"
        }
      ],
      "stateMutability": "view",
      "type": "function"
    },
    {
      "inputs": [
        {
          "internalType": "string",
          "name": "",
          "type": "string"
        }
      ],
      "name": "domains",
      "outputs": [
        {
          "internalType": "address",
          "name": "",
          "type": "address"
        }
      ],
      "stateMutability": "view",
      "type": "function"
    },
    {
      "inputs": [
        {
          "internalType": "string",
          "name": "",
          "type": "string"
        }
      ],
      "name": "emails",
      "outputs": [
        {
          "internalType": "string",
          "name": "",
          "type": "string"
        }
      ],
      "stateMutability": "view",
      "type": "function"
    },
    {
      "inputs": [
        {
          "internalType": "string",
          "name": "name",
          "type": "string"
        }
      ],
      "name": "getAddress",
      "outputs": [
        {
          "internalType": "address",
          "name": "",
          "type": "address"
        }
      ],
      "stateMutability": "view",
      "type": "function"
    },
    {
      "inputs": [],
      "name": "getAllNames",
      "outputs": [
        {
          "internalType": "string[]",
          "name": "",
          "type": "string[]"
        }
      ],
      "stateMutability": "view",
      "type": "function"
    },
    {
      "inputs": [
        {
          "internalType": "uint256",
          "name": "tokenId",
          "type": "uint256"
        }
      ],
      "name": "getApproved",
      "outputs": [
        {
          "internalType": "address",
          "name": "",
          "type": "address"
        }
      ],
      "stateMutability": "view",
      "type": "function"
    },
    {
      "inputs": [
        {
          "internalType": "string",
          "name": "name",
          "type": "string"
        }
      ],
      "name": "getEmail",
      "outputs": [
        {
          "internalType": "string",
          "name": "",
          "type": "string"
        }
      ],
      "stateMutability": "view",
      "type": "function"
    },
    {
      "inputs": [
        {
          "internalType": "string",
          "name": "name",
          "type": "string"
        }
      ],
      "name": "getRecord",
      "outputs": [
        {
          "internalType": "string",
          "name": "",
          "type": "string"
        }
      ],
      "stateMutability": "view",
      "type": "function"
    },
    {
      "inputs": [
        {
          "internalType": "string",
          "name": "name",
          "type": "string"
        }
      ],
      "name": "getWebsite",
      "outputs": [
        {
          "internalType": "string",
          "name": "",
          "type": "string"
        }
      ],
      "stateMutability": "view",
      "type": "function"
    },
    {
      "inputs": [
        {
          "internalType": "address",
          "name": "owner",
          "type": "address"
        },
        {
          "internalType": "address",
          "name": "operator",
          "type": "address"
        }
      ],
      "name": "isApprovedForAll",
      "outputs": [
        {
          "internalType": "bool",
          "name": "",
          "type": "bool"
        }
      ],
      "stateMutability": "view",
      "type": "function"
    },
    {
      "inputs": [],
      "name": "isOwner",
      "outputs": [
        {
          "internalType": "bool",
          "name": "",
          "type": "bool"
        }
      ],
      "stateMutability": "view",
      "type": "function"
    },
    {
      "inputs": [],
      "name": "name",
      "outputs": [
        {
          "internalType": "string",
          "name": "",
          "type": "string"
        }
      ],
      "stateMutability": "view",
      "type": "function"
    },
    {
      "inputs": [
        {
          "internalType": "uint256",
          "name": "",
          "type": "uint256"
        }
      ],
      "name": "names",
      "outputs": [
        {
          "internalType": "string",
          "name": "",
          "type": "string"
        }
      ],
      "stateMutability": "view",
      "type": "function"
    },
    {
      "inputs": [],
      "name": "owner",
      "outputs": [
        {
          "internalType": "address payable",
          "name": "",
          "type": "address"
        }
      ],
      "stateMutability": "view",
      "type": "function"
    },
    {
      "inputs": [
        {
          "internalType": "uint256",
          "name": "tokenId",
          "type": "uint256"
        }
      ],
      "name": "ownerOf",
      "outputs": [
        {
          "internalType": "address",
          "name": "",
          "type": "address"
        }
      ],
      "stateMutability": "view",
      "type": "function"
    },
    {
      "inputs": [
        {
          "internalType": "string",
          "name": "name",
          "type": "string"
        }
      ],
      "name": "price",
      "outputs": [
        {
          "internalType": "uint256",
          "name": "",
          "type": "uint256"
        }
      ],
      "stateMutability": "pure",
      "type": "function"
    },
    {
      "inputs": [
        {
          "internalType": "string",
          "name": "",
          "type": "string"
        }
      ],
      "name": "records",
      "outputs": [
        {
          "internalType": "string",
          "name": "",
          "type": "string"
        }
      ],
      "stateMutability": "view",
      "type": "function"
    },
    {
      "inputs": [
        {
          "internalType": "string",
          "name": "name",
          "type": "string"
        }
      ],
      "name": "register",
      "outputs": [],
      "stateMutability": "payable",
      "type": "function"
    },
    {
      "inputs": [
        {
          "internalType": "address",
          "name": "from",
          "type": "address"
        },
        {
          "internalType": "address",
          "name": "to",
          "type": "address"
        },
        {
          "internalType": "uint256",
          "name": "tokenId",
          "type": "uint256"
        }
      ],
      "name": "safeTransferFrom",
      "outputs": [],
      "stateMutability": "nonpayable",
      "type": "function"
    },
    {
      "inputs": [
        {
          "internalType": "address",
          "name": "from",
          "type": "address"
        },
        {
          "internalType": "address",
          "name": "to",
          "type": "address"
        },
        {
          "internalType": "uint256",
          "name": "tokenId",
          "type": "uint256"
        },
        {
          "internalType": "bytes",
          "name": "_data",
          "type": "bytes"
        }
      ],
      "name": "safeTransferFrom",
      "outputs": [],
      "stateMutability": "nonpayable",
      "type": "function"
    },
    {
      "inputs": [
        {
          "internalType": "address",
          "name": "operator",
          "type": "address"
        },
        {
          "internalType": "bool",
          "name": "approved",
          "type": "bool"
        }
      ],
      "name": "setApprovalForAll",
      "outputs": [],
      "stateMutability": "nonpayable",
      "type": "function"
    },
    {
      "inputs": [
        {
          "internalType": "string",
          "name": "name",
          "type": "string"
        },
        {
          "internalType": "string",
          "name": "email",
          "type": "string"
        }
      ],
      "name": "setEmail",
      "outputs": [],
      "stateMutability": "nonpayable",
      "type": "function"
    },
    {
      "inputs": [
        {
          "internalType": "string",
          "name": "name",
          "type": "string"
        },
        {
          "internalType": "string",
          "name": "record",
          "type": "string"
        }
      ],
      "name": "setRecord",
      "outputs": [],
      "stateMutability": "nonpayable",
      "type": "function"
    },
    {
      "inputs": [
        {
          "internalType": "string",
          "name": "name",
          "type": "string"
        },
        {
          "internalType": "string",
          "name": "website",
          "type": "string"
        }
      ],
      "name": "setWebsite",
      "outputs": [],
      "stateMutability": "nonpayable",
      "type": "function"
    },
    {
      "inputs": [
        {
          "internalType": "bytes4",
          "name": "interfaceId",
          "type": "bytes4"
        }
      ],
      "name": "supportsInterface",
      "outputs": [
        {
          "internalType": "bool",
          "name": "",
          "type": "bool"
        }
      ],
      "stateMutability": "view",
      "type": "function"
    },
    {
      "inputs": [],
      "name": "symbol",
      "outputs": [
        {
          "internalType": "string",
          "name": "",
          "type": "string"
        }
      ],
      "stateMutability": "view",
      "type": "function"
    },
    {
      "inputs": [],
      "name": "tld",
      "outputs": [
        {
          "internalType": "string",
          "name": "",
          "type": "string"
        }
      ],
      "stateMutability": "view",
      "type": "function"
    },
    {
      "inputs": [
        {
          "internalType": "uint256",
          "name": "tokenId",
          "type": "uint256"
        }
      ],
      "name": "tokenURI",
      "outputs": [
        {
          "internalType": "string",
          "name": "",
          "type": "string"
        }
      ],
      "stateMutability": "view",
      "type": "function"
    },
    {
      "inputs": [
        {
          "internalType": "address",
          "name": "from",
          "type": "address"
        },
        {
          "internalType": "address",
          "name": "to",
          "type": "address"
        },
        {
          "internalType": "uint256",
          "name": "tokenId",
          "type": "uint256"
        }
      ],
      "name": "transferFrom",
      "outputs": [],
      "stateMutability": "nonpayable",
      "type": "function"
    },
    {
      "inputs": [
        {
          "internalType": "string",
          "name": "name",
          "type": "string"
        }
      ],
      "name": "valid",
      "outputs": [
        {
          "internalType": "bool",
          "name": "",
          "type": "bool"
        }
      ],
      "stateMutability": "pure",
      "type": "function"
    },
    {
      "inputs": [
        {
          "internalType": "string",
          "name": "",
          "type": "string"
        }
      ],
      "name": "websites",
      "outputs": [
        {
          "internalType": "string",
          "name": "",
          "type": "string"
        }
      ],
      "stateMutability": "view",
      "type": "function"
    },
    {
      "inputs": [],
      "name": "withdraw",
      "outputs": [],
      "stateMutability": "nonpayable",
      "type": "function"
    }
  ],
  "bytecode": "0x6080604052604051806108a0016040528061086b8152602001620058d161086b91396008908051906020019062000038929190620002c8565b506040518060400160405280600d81526020017f3c2f746578743e3c2f7376673e000000000000000000000000000000000000008152506009908051906020019062000086929190620002c8565b506040516200613c3803806200613c8339818101604052810190620000ac919062000515565b6040518060400160405280601281526020017f4e696e6a61204e616d65205365727669636500000000000000000000000000008152506040518060400160405280600381526020017f4e4e530000000000000000000000000000000000000000000000000000000000815250816000908051906020019062000130929190620002c8565b50806001908051906020019062000149929190620002c8565b50505033600f60006101000a81548173ffffffffffffffffffffffffffffffffffffffff021916908373ffffffffffffffffffffffffffffffffffffffff16021790555080600e9080519060200190620001a5929190620002c8565b50620001f26040518060400160405280601881526020017f2573206e616d652073657276696365206465706c6f796564000000000000000081525082620001f960201b6200214d1760201c565b5062000663565b6200029b828260405160240162000212929190620005c3565b6040516020818303038152906040527f4b5c4277000000000000000000000000000000000000000000000000000000007bffffffffffffffffffffffffffffffffffffffffffffffffffffffff19166020820180517bffffffffffffffffffffffffffffffffffffffffffffffffffffffff83818316178352505050506200029f60201b60201c565b5050565b60008151905060006a636f6e736f6c652e6c6f679050602083016000808483855afa5050505050565b828054620002d6906200062d565b90600052602060002090601f016020900481019282620002fa576000855562000346565b82601f106200031557805160ff191683800117855562000346565b8280016001018555821562000346579182015b828111156200034557825182559160200191906001019062000328565b5b50905062000355919062000359565b5090565b5b80821115620003745760008160009055506001016200035a565b5090565b6000604051905090565b600080fd5b600080fd5b600080fd5b600080fd5b6000601f19601f8301169050919050565b7f4e487b7100000000000000000000000000000000000000000000000000000000600052604160045260246000fd5b620003e18262000396565b810181811067ffffffffffffffff82111715620004035762000402620003a7565b5b80604052505050565b60006200041862000378565b9050620004268282620003d6565b919050565b600067ffffffffffffffff821115620004495762000448620003a7565b5b620004548262000396565b9050602081019050919050565b60005b838110156200048157808201518184015260208101905062000464565b8381111562000491576000848401525b50505050565b6000620004ae620004a8846200042b565b6200040c565b905082815260208101848484011115620004cd57620004cc62000391565b5b620004da84828562000461565b509392505050565b600082601f830112620004fa57620004f96200038c565b5b81516200050c84826020860162000497565b91505092915050565b6000602082840312156200052e576200052d62000382565b5b600082015167ffffffffffffffff8111156200054f576200054e62000387565b5b6200055d84828501620004e2565b91505092915050565b600081519050919050565b600082825260208201905092915050565b60006200058f8262000566565b6200059b818562000571565b9350620005ad81856020860162000461565b620005b88162000396565b840191505092915050565b60006040820190508181036000830152620005df818562000582565b90508181036020830152620005f5818462000582565b90509392505050565b7f4e487b7100000000000000000000000000000000000000000000000000000000600052602260045260246000fd5b600060028204905060018216806200064657607f821691505b602082108114156200065d576200065c620005fe565b5b50919050565b61525e80620006736000396000f3fe6080604052600436106101ee5760003560e01c80638f32d59b1161010d578063c87b56dd116100a0578063eb76fe951161006f578063eb76fe951461077f578063f2c298be146107bc578063f77e8bd7146107d8578063fb825e5f14610815578063fe2c619814610840576101ee565b8063c87b56dd1461069f578063d35bfbd8146106dc578063d5b0d30d14610705578063e985e9c514610742576101ee565b8063b4ed40a5116100dc578063b4ed40a5146105d3578063b88d4fde14610610578063bf40fac114610639578063c1880a9814610676576101ee565b80638f32d59b1461051757806395d89b41146105425780639791c0971461056d578063a22cb465146105aa576101ee565b80633ccfd60b116101855780636352211e116101545780636352211e1461044957806370a08231146104865780637ec48b6a146104c35780638da5cb5b146104ec576101ee565b80633ccfd60b1461038f57806342842e0e146103a65780634622ab03146103cf578063541e771d1461040c576101ee565b806311dd8845116101c157806311dd8845146102c157806323b872dd146102fe57806326449235146103275780632d55143214610364576101ee565b806301ffc9a7146101f357806306fdde0314610230578063081812fc1461025b578063095ea7b314610298575b600080fd5b3480156101ff57600080fd5b5061021a60048036038101906102159190613632565b61087d565b604051610227919061367a565b60405180910390f35b34801561023c57600080fd5b5061024561095f565b604051610252919061372e565b60405180910390f35b34801561026757600080fd5b50610282600480360381019061027d9190613786565b6109f1565b60405161028f91906137f4565b60405180910390f35b3480156102a457600080fd5b506102bf60048036038101906102ba919061383b565b610a76565b005b3480156102cd57600080fd5b506102e860048036038101906102e391906138e0565b610b8e565b6040516102f5919061372e565b60405180910390f35b34801561030a57600080fd5b506103256004803603810190610320919061392d565b610c41565b005b34801561033357600080fd5b5061034e60048036038101906103499190613ab0565b610ca1565b60405161035b91906137f4565b60405180910390f35b34801561037057600080fd5b50610379610cea565b604051610386919061372e565b60405180910390f35b34801561039b57600080fd5b506103a4610d78565b005b3480156103b257600080fd5b506103cd60048036038101906103c8919061392d565b610e3e565b005b3480156103db57600080fd5b506103f660048036038101906103f19190613786565b610e5e565b604051610403919061372e565b60405180910390f35b34801561041857600080fd5b50610433600480360381019061042e9190613ab0565b610efe565b604051610440919061372e565b60405180910390f35b34801561045557600080fd5b50610470600480360381019061046b9190613786565b610fb4565b60405161047d91906137f4565b60405180910390f35b34801561049257600080fd5b506104ad60048036038101906104a89190613af9565b611066565b6040516104ba9190613b35565b60405180910390f35b3480156104cf57600080fd5b506104ea60048036038101906104e59190613b50565b61111e565b005b3480156104f857600080fd5b506105016111cc565b60405161050e9190613bf2565b60405180910390f35b34801561052357600080fd5b5061052c6111f2565b604051610539919061367a565b60405180910390f35b34801561054e57600080fd5b5061055761124a565b604051610564919061372e565b60405180910390f35b34801561057957600080fd5b50610594600480360381019061058f91906138e0565b6112dc565b6040516105a1919061367a565b60405180910390f35b3480156105b657600080fd5b506105d160048036038101906105cc9190613c39565b611390565b005b3480156105df57600080fd5b506105fa60048036038101906105f591906138e0565b6113a6565b604051610607919061372e565b60405180910390f35b34801561061c57600080fd5b5061063760048036038101906106329190613d1a565b611459565b005b34801561064557600080fd5b50610660600480360381019061065b91906138e0565b6114bb565b60405161066d91906137f4565b60405180910390f35b34801561068257600080fd5b5061069d60048036038101906106989190613b50565b611506565b005b3480156106ab57600080fd5b506106c660048036038101906106c19190613786565b6115e1565b6040516106d3919061372e565b60405180910390f35b3480156106e857600080fd5b5061070360048036038101906106fe9190613b50565b611733565b005b34801561071157600080fd5b5061072c60048036038101906107279190613ab0565b6117e1565b604051610739919061372e565b60405180910390f35b34801561074e57600080fd5b5061076960048036038101906107649190613d9d565b611897565b604051610776919061367a565b60405180910390f35b34801561078b57600080fd5b506107a660048036038101906107a19190613ab0565b61192b565b6040516107b3919061372e565b60405180910390f35b6107d660048036038101906107d191906138e0565b6119e1565b005b3480156107e457600080fd5b506107ff60048036038101906107fa91906138e0565b611e19565b60405161080c919061372e565b60405180910390f35b34801561082157600080fd5b5061082a611ecc565b6040516108379190613ee9565b60405180910390f35b34801561084c57600080fd5b50610867600480360381019061086291906138e0565b6120aa565b6040516108749190613b35565b60405180910390f35b60007f80ac58cd000000000000000000000000000000000000000000000000000000007bffffffffffffffffffffffffffffffffffffffffffffffffffffffff1916827bffffffffffffffffffffffffffffffffffffffffffffffffffffffff1916148061094857507f5b5e139f000000000000000000000000000000000000000000000000000000007bffffffffffffffffffffffffffffffffffffffffffffffffffffffff1916827bffffffffffffffffffffffffffffffffffffffffffffffffffffffff1916145b806109585750610957826121e9565b5b9050919050565b60606000805461096e90613f3a565b80601f016020809104026020016040519081016040528092919081815260200182805461099a90613f3a565b80156109e75780601f106109bc576101008083540402835291602001916109e7565b820191906000526020600020905b8154815290600101906020018083116109ca57829003601f168201915b5050505050905090565b60006109fc82612253565b610a3b576040517f08c379a0000000000000000000000000000000000000000000000000000000008152600401610a3290613fde565b60405180910390fd5b6004600083815260200190815260200160002060009054906101000a900473ffffffffffffffffffffffffffffffffffffffff169050919050565b6000610a8182610fb4565b90508073ffffffffffffffffffffffffffffffffffffffff168373ffffffffffffffffffffffffffffffffffffffff161415610af2576040517f08c379a0000000000000000000000000000000000000000000000000000000008152600401610ae990614070565b60405180910390fd5b8073ffffffffffffffffffffffffffffffffffffffff16610b116122bf565b73ffffffffffffffffffffffffffffffffffffffff161480610b405750610b3f81610b3a6122bf565b611897565b5b610b7f576040517f08c379a0000000000000000000000000000000000000000000000000000000008152600401610b7690614102565b60405180910390fd5b610b8983836122c7565b505050565b6060600b8383604051610ba2929190614152565b90815260200160405180910390208054610bbb90613f3a565b80601f0160208091040260200160405190810160405280929190818152602001828054610be790613f3a565b8015610c345780601f10610c0957610100808354040283529160200191610c34565b820191906000526020600020905b815481529060010190602001808311610c1757829003601f168201915b5050505050905092915050565b610c52610c4c6122bf565b82612380565b610c91576040517f08c379a0000000000000000000000000000000000000000000000000000000008152600401610c88906141dd565b60405180910390fd5b610c9c83838361245e565b505050565b600a818051602081018201805184825260208301602085012081835280955050505050506000915054906101000a900473ffffffffffffffffffffffffffffffffffffffff1681565b600e8054610cf790613f3a565b80601f0160208091040260200160405190810160405280929190818152602001828054610d2390613f3a565b8015610d705780601f10610d4557610100808354040283529160200191610d70565b820191906000526020600020905b815481529060010190602001808311610d5357829003601f168201915b505050505081565b610d806111f2565b610d8957600080fd5b600047905060003373ffffffffffffffffffffffffffffffffffffffff1682604051610db49061422e565b60006040518083038185875af1925050503d8060008114610df1576040519150601f19603f3d011682016040523d82523d6000602084013e610df6565b606091505b5050905080610e3a576040517f08c379a0000000000000000000000000000000000000000000000000000000008152600401610e319061428f565b60405180910390fd5b5050565b610e5983838360405180602001604052806000815250611459565b505050565b60106020528060005260406000206000915090508054610e7d90613f3a565b80601f0160208091040260200160405190810160405280929190818152602001828054610ea990613f3a565b8015610ef65780601f10610ecb57610100808354040283529160200191610ef6565b820191906000526020600020905b815481529060010190602001808311610ed957829003601f168201915b505050505081565b600b818051602081018201805184825260208301602085012081835280955050505050506000915090508054610f3390613f3a565b80601f0160208091040260200160405190810160405280929190818152602001828054610f5f90613f3a565b8015610fac5780601f10610f8157610100808354040283529160200191610fac565b820191906000526020600020905b815481529060010190602001808311610f8f57829003601f168201915b505050505081565b6000806002600084815260200190815260200160002060009054906101000a900473ffffffffffffffffffffffffffffffffffffffff169050600073ffffffffffffffffffffffffffffffffffffffff168173ffffffffffffffffffffffffffffffffffffffff16141561105d576040517f08c379a000000000000000000000000000000000000000000000000000000000815260040161105490614321565b60405180910390fd5b80915050919050565b60008073ffffffffffffffffffffffffffffffffffffffff168273ffffffffffffffffffffffffffffffffffffffff1614156110d7576040517f08c379a00000000000000000000000000000000000000000000000000000000081526004016110ce906143b3565b60405180910390fd5b600360008373ffffffffffffffffffffffffffffffffffffffff1673ffffffffffffffffffffffffffffffffffffffff168152602001908152602001600020549050919050565b3373ffffffffffffffffffffffffffffffffffffffff16600a8585604051611147929190614152565b908152602001604051809103902060009054906101000a900473ffffffffffffffffffffffffffffffffffffffff1673ffffffffffffffffffffffffffffffffffffffff161461119657600080fd5b8181600d86866040516111aa929190614152565b908152602001604051809103902091906111c592919061349d565b5050505050565b600f60009054906101000a900473ffffffffffffffffffffffffffffffffffffffff1681565b6000600f60009054906101000a900473ffffffffffffffffffffffffffffffffffffffff1673ffffffffffffffffffffffffffffffffffffffff163373ffffffffffffffffffffffffffffffffffffffff1614905090565b60606001805461125990613f3a565b80601f016020809104026020016040519081016040528092919081815260200182805461128590613f3a565b80156112d25780601f106112a7576101008083540402835291602001916112d2565b820191906000526020600020905b8154815290600101906020018083116112b557829003601f168201915b5050505050905090565b6000600361132d84848080601f016020809104026020016040519081016040528093929190818152602001838380828437600081840152601f19601f820116905080830192505050505050506126c5565b101580156113885750601461138584848080601f016020809104026020016040519081016040528093929190818152602001838380828437600081840152601f19601f820116905080830192505050505050506126c5565b11155b905092915050565b6113a261139b6122bf565b838361287a565b5050565b6060600d83836040516113ba929190614152565b908152602001604051809103902080546113d390613f3a565b80601f01602080910402602001604051908101604052809291908181526020018280546113ff90613f3a565b801561144c5780601f106114215761010080835404028352916020019161144c565b820191906000526020600020905b81548152906001019060200180831161142f57829003601f168201915b5050505050905092915050565b61146a6114646122bf565b83612380565b6114a9576040517f08c379a00000000000000000000000000000000000000000000000000000000081526004016114a0906141dd565b60405180910390fd5b6114b5848484846129e7565b50505050565b6000600a83836040516114cf929190614152565b908152602001604051809103902060009054906101000a900473ffffffffffffffffffffffffffffffffffffffff16905092915050565b3373ffffffffffffffffffffffffffffffffffffffff16600a858560405161152f929190614152565b908152602001604051809103902060009054906101000a900473ffffffffffffffffffffffffffffffffffffffff1673ffffffffffffffffffffffffffffffffffffffff16146115ab576040517f82b4290000000000000000000000000000000000000000000000000000000000815260040160405180910390fd5b8181600b86866040516115bf929190614152565b908152602001604051809103902091906115da92919061349d565b5050505050565b60606115ec82612253565b61162b576040517f08c379a000000000000000000000000000000000000000000000000000000000815260040161162290614445565b60405180910390fd5b600060066000848152602001908152602001600020805461164b90613f3a565b80601f016020809104026020016040519081016040528092919081815260200182805461167790613f3a565b80156116c45780601f10611699576101008083540402835291602001916116c4565b820191906000526020600020905b8154815290600101906020018083116116a757829003601f168201915b5050505050905060006116d5612a43565b90506000815114156116eb57819250505061172e565b600082511115611720578082604051602001611708929190614496565b6040516020818303038152906040529250505061172e565b61172984612a5a565b925050505b919050565b3373ffffffffffffffffffffffffffffffffffffffff16600a858560405161175c929190614152565b908152602001604051809103902060009054906101000a900473ffffffffffffffffffffffffffffffffffffffff1673ffffffffffffffffffffffffffffffffffffffff16146117ab57600080fd5b8181600c86866040516117bf929190614152565b908152602001604051809103902091906117da92919061349d565b5050505050565b600c81805160208101820180518482526020830160208501208183528095505050505050600091509050805461181690613f3a565b80601f016020809104026020016040519081016040528092919081815260200182805461184290613f3a565b801561188f5780601f106118645761010080835404028352916020019161188f565b820191906000526020600020905b81548152906001019060200180831161187257829003601f168201915b505050505081565b6000600560008473ffffffffffffffffffffffffffffffffffffffff1673ffffffffffffffffffffffffffffffffffffffff16815260200190815260200160002060008373ffffffffffffffffffffffffffffffffffffffff1673ffffffffffffffffffffffffffffffffffffffff16815260200190815260200160002060009054906101000a900460ff16905092915050565b600d81805160208101820180518482526020830160208501208183528095505050505050600091509050805461196090613f3a565b80601f016020809104026020016040519081016040528092919081815260200182805461198c90613f3a565b80156119d95780601f106119ae576101008083540402835291602001916119d9565b820191906000526020600020905b8154815290600101906020018083116119bc57829003601f168201915b505050505081565b600073ffffffffffffffffffffffffffffffffffffffff16600a8383604051611a0b929190614152565b908152602001604051809103902060009054906101000a900473ffffffffffffffffffffffffffffffffffffffff1673ffffffffffffffffffffffffffffffffffffffff1614611a87576040517f3a81d6fc00000000000000000000000000000000000000000000000000000000815260040160405180910390fd5b611a9182826112dc565b611ad45781816040517f7f19f48d000000000000000000000000000000000000000000000000000000008152600401611acb9291906144e7565b60405180910390fd5b6000611ae083836120aa565b905080341015611b25576040517f08c379a0000000000000000000000000000000000000000000000000000000008152600401611b1c90614557565b60405180910390fd5b60008383600e604051602001611b3d93929190614657565b604051602081830303815290604052905060006008826009604051602001611b6793929190614688565b60405160208183030381529060405290506000611b846007612b01565b90506000611bd587878080601f016020809104026020016040519081016040528093929190818152602001838380828437600081840152601f19601f820116905080830192505050505050506126c5565b90506000611be282612b0f565b9050611cd66040518060600160405280603181526020016151b86031913989898080601f016020809104026020016040519081016040528093929190818152602001838380828437600081840152601f19601f82011690508083019250505050505050600e8054611c5290613f3a565b80601f0160208091040260200160405190810160405280929190818152602001828054611c7e90613f3a565b8015611ccb5780601f10611ca057610100808354040283529160200191611ccb565b820191906000526020600020905b815481529060010190602001808311611cae57829003601f168201915b505050505086612c70565b6000611d0c86611ce587612d12565b84604051602001611cf893929190614835565b604051602081830303815290604052612d12565b9050600081604051602001611d2191906148de565b6040516020818303038152906040529050611d3c3386612eaa565b611d468582612ec8565b33600a8b8b604051611d59929190614152565b908152602001604051809103902060006101000a81548173ffffffffffffffffffffffffffffffffffffffff021916908373ffffffffffffffffffffffffffffffffffffffff1602179055508989601060008881526020019081526020016000209190611dc792919061349d565b507f20e80603f7ce959dfe4fb1465bdeed1c2a09496b3499f23062575c0e1e243a598a8a87604051611dfb93929190614900565b60405180910390a1611e0d6007612f3c565b50505050505050505050565b6060600c8383604051611e2d929190614152565b90815260200160405180910390208054611e4690613f3a565b80601f0160208091040260200160405190810160405280929190818152602001828054611e7290613f3a565b8015611ebf5780601f10611e9457610100808354040283529160200191611ebf565b820191906000526020600020905b815481529060010190602001808311611ea257829003601f168201915b5050505050905092915050565b6060611f0c6040518060400160405280601f81526020017f47657474696e6720616c6c206e616d65732066726f6d20636f6e747261637400815250612f52565b6000611f186007612b01565b67ffffffffffffffff811115611f3157611f30613985565b5b604051908082528060200260200182016040528015611f6457816020015b6060815260200190600190039081611f4f5790505b50905060005b611f746007612b01565b8110156120a257601060008281526020019081526020016000208054611f9990613f3a565b80601f0160208091040260200160405190810160405280929190818152602001828054611fc590613f3a565b80156120125780601f10611fe757610100808354040283529160200191612012565b820191906000526020600020905b815481529060010190602001808311611ff557829003601f168201915b505050505082828151811061202a57612029614932565b5b602002602001018190525061208f6040518060400160405280601781526020017f4e616d6520666f7220746f6b656e2025642069732025730000000000000000008152508284848151811061208257612081614932565b5b6020026020010151612feb565b808061209a90614990565b915050611f6a565b508091505090565b6000806120fa84848080601f016020809104026020016040519081016040528093929190818152602001838380828437600081840152601f19601f820116905080830192505050505050506126c5565b90506000811161210957600080fd5b60038114156121225766b1a2bc2ec50000915050612147565b600481141561213b57666a94d74f430000915050612147565b662386f26fc100009150505b92915050565b6121e582826040516024016121639291906149d9565b6040516020818303038152906040527f4b5c4277000000000000000000000000000000000000000000000000000000007bffffffffffffffffffffffffffffffffffffffffffffffffffffffff19166020820180517bffffffffffffffffffffffffffffffffffffffffffffffffffffffff838183161783525050505061308a565b5050565b60007f01ffc9a7000000000000000000000000000000000000000000000000000000007bffffffffffffffffffffffffffffffffffffffffffffffffffffffff1916827bffffffffffffffffffffffffffffffffffffffffffffffffffffffff1916149050919050565b60008073ffffffffffffffffffffffffffffffffffffffff166002600084815260200190815260200160002060009054906101000a900473ffffffffffffffffffffffffffffffffffffffff1673ffffffffffffffffffffffffffffffffffffffff1614159050919050565b600033905090565b816004600083815260200190815260200160002060006101000a81548173ffffffffffffffffffffffffffffffffffffffff021916908373ffffffffffffffffffffffffffffffffffffffff160217905550808273ffffffffffffffffffffffffffffffffffffffff1661233a83610fb4565b73ffffffffffffffffffffffffffffffffffffffff167f8c5be1e5ebec7d5bd14f71427d1e84f3dd0314c0f7b2291e5b200ac8c7c3b92560405160405180910390a45050565b600061238b82612253565b6123ca576040517f08c379a00000000000000000000000000000000000000000000000000000000081526004016123c190614a82565b60405180910390fd5b60006123d583610fb4565b90508073ffffffffffffffffffffffffffffffffffffffff168473ffffffffffffffffffffffffffffffffffffffff16148061244457508373ffffffffffffffffffffffffffffffffffffffff1661242c846109f1565b73ffffffffffffffffffffffffffffffffffffffff16145b8061245557506124548185611897565b5b91505092915050565b8273ffffffffffffffffffffffffffffffffffffffff1661247e82610fb4565b73ffffffffffffffffffffffffffffffffffffffff16146124d4576040517f08c379a00000000000000000000000000000000000000000000000000000000081526004016124cb90614b14565b60405180910390fd5b600073ffffffffffffffffffffffffffffffffffffffff168273ffffffffffffffffffffffffffffffffffffffff161415612544576040517f08c379a000000000000000000000000000000000000000000000000000000000815260040161253b90614ba6565b60405180910390fd5b61254f8383836130b3565b61255a6000826122c7565b6001600360008573ffffffffffffffffffffffffffffffffffffffff1673ffffffffffffffffffffffffffffffffffffffff16815260200190815260200160002060008282546125aa9190614bc6565b925050819055506001600360008473ffffffffffffffffffffffffffffffffffffffff1673ffffffffffffffffffffffffffffffffffffffff16815260200190815260200160002060008282546126019190614bfa565b92505081905550816002600083815260200190815260200160002060006101000a81548173ffffffffffffffffffffffffffffffffffffffff021916908373ffffffffffffffffffffffffffffffffffffffff160217905550808273ffffffffffffffffffffffffffffffffffffffff168473ffffffffffffffffffffffffffffffffffffffff167fddf252ad1be2c89b69c2b068fc378daa952ba7f163c4a11628f55a4df523b3ef60405160405180910390a46126c08383836130b8565b505050565b60008060008084519050600092505b8082101561286f5760008583815181106126f1576126f0614932565b5b602001015160f81c60f81b9050608060f81b817effffffffffffffffffffffffffffffffffffffffffffffffffffffffffffff19161015612740576001836127399190614bfa565b925061285b565b60e060f81b817effffffffffffffffffffffffffffffffffffffffffffffffffffffffffffff191610156127825760028361277b9190614bfa565b925061285a565b60f060f81b817effffffffffffffffffffffffffffffffffffffffffffffffffffffffffffff191610156127c4576003836127bd9190614bfa565b9250612859565b60f8801b817effffffffffffffffffffffffffffffffffffffffffffffffffffffffffffff19161015612805576004836127fe9190614bfa565b9250612858565b60fc60f81b817effffffffffffffffffffffffffffffffffffffffffffffffffffffffffffff19161015612847576005836128409190614bfa565b9250612857565b6006836128549190614bfa565b92505b5b5b5b5b50828061286790614990565b9350506126d4565b829350505050919050565b8173ffffffffffffffffffffffffffffffffffffffff168373ffffffffffffffffffffffffffffffffffffffff1614156128e9576040517f08c379a00000000000000000000000000000000000000000000000000000000081526004016128e090614c9c565b60405180910390fd5b80600560008573ffffffffffffffffffffffffffffffffffffffff1673ffffffffffffffffffffffffffffffffffffffff16815260200190815260200160002060008473ffffffffffffffffffffffffffffffffffffffff1673ffffffffffffffffffffffffffffffffffffffff16815260200190815260200160002060006101000a81548160ff0219169083151502179055508173ffffffffffffffffffffffffffffffffffffffff168373ffffffffffffffffffffffffffffffffffffffff167f17307eab39ab6107e8899845ad3d59bd9653f200f220920489ca2b5937696c31836040516129da919061367a565b60405180910390a3505050565b6129f284848461245e565b6129fe848484846130bd565b612a3d576040517f08c379a0000000000000000000000000000000000000000000000000000000008152600401612a3490614d2e565b60405180910390fd5b50505050565b606060405180602001604052806000815250905090565b6060612a6582612253565b612aa4576040517f08c379a0000000000000000000000000000000000000000000000000000000008152600401612a9b90614dc0565b60405180910390fd5b6000612aae612a43565b90506000815111612ace5760405180602001604052806000815250612af9565b80612ad884612b0f565b604051602001612ae9929190614496565b6040516020818303038152906040525b915050919050565b600081600001549050919050565b60606000821415612b57576040518060400160405280600181526020017f30000000000000000000000000000000000000000000000000000000000000008152509050612c6b565b600082905060005b60008214612b89578080612b7290614990565b915050600a82612b829190614e0f565b9150612b5f565b60008167ffffffffffffffff811115612ba557612ba4613985565b5b6040519080825280601f01601f191660200182016040528015612bd75781602001600182028036833780820191505090505b5090505b60008514612c6457600182612bf09190614bc6565b9150600a85612bff9190614e40565b6030612c0b9190614bfa565b60f81b818381518110612c2157612c20614932565b5b60200101907effffffffffffffffffffffffffffffffffffffffffffffffffffffffffffff1916908160001a905350600a85612c5d9190614e0f565b9450612bdb565b8093505050505b919050565b612d0c84848484604051602401612c8a9493929190614e71565b6040516020818303038152906040527f9fd009f5000000000000000000000000000000000000000000000000000000007bffffffffffffffffffffffffffffffffffffffffffffffffffffffff19166020820180517bffffffffffffffffffffffffffffffffffffffffffffffffffffffff838183161783525050505061308a565b50505050565b60606000825190506000811415612d3b5760405180602001604052806000815250915050612ea5565b60006003600283612d4c9190614bfa565b612d569190614e0f565b6004612d629190614ecb565b90506000602082612d739190614bfa565b67ffffffffffffffff811115612d8c57612d8b613985565b5b6040519080825280601f01601f191660200182016040528015612dbe5781602001600182028036833780820191505090505b50905060006040518060600160405280604081526020016151e9604091399050600181016020830160005b86811015612e625760038101905062ffffff818a015116603f8160121c168401518060081b905060ff603f83600c1c1686015116810190508060081b905060ff603f8360061c1686015116810190508060081b905060ff603f831686015116810190508060e01b90508084526004840193505050612de9565b506003860660018114612e7c5760028114612e8c57612e97565b613d3d60f01b6002830352612e97565b603d60f81b60018303525b508484525050819450505050505b919050565b612ec4828260405180602001604052806000815250613245565b5050565b612ed182612253565b612f10576040517f08c379a0000000000000000000000000000000000000000000000000000000008152600401612f0790614f97565b60405180910390fd5b80600660008481526020019081526020016000209080519060200190612f37929190613523565b505050565b6001816000016000828254019250508190555050565b612fe881604051602401612f66919061372e565b6040516020818303038152906040527f41304fac000000000000000000000000000000000000000000000000000000007bffffffffffffffffffffffffffffffffffffffffffffffffffffffff19166020820180517bffffffffffffffffffffffffffffffffffffffffffffffffffffffff838183161783525050505061308a565b50565b61308583838360405160240161300393929190614fb7565b6040516020818303038152906040527fa3f5c739000000000000000000000000000000000000000000000000000000007bffffffffffffffffffffffffffffffffffffffffffffffffffffffff19166020820180517bffffffffffffffffffffffffffffffffffffffffffffffffffffffff838183161783525050505061308a565b505050565b60008151905060006a636f6e736f6c652e6c6f679050602083016000808483855afa5050505050565b505050565b505050565b60006130de8473ffffffffffffffffffffffffffffffffffffffff166132a0565b15613238578373ffffffffffffffffffffffffffffffffffffffff1663150b7a026131076122bf565b8786866040518563ffffffff1660e01b81526004016131299493929190615051565b6020604051808303816000875af192505050801561316557506040513d601f19601f8201168201806040525081019061316291906150b2565b60015b6131e8573d8060008114613195576040519150601f19603f3d011682016040523d82523d6000602084013e61319a565b606091505b506000815114156131e0576040517f08c379a00000000000000000000000000000000000000000000000000000000081526004016131d790614d2e565b60405180910390fd5b805181602001fd5b63150b7a0260e01b7bffffffffffffffffffffffffffffffffffffffffffffffffffffffff1916817bffffffffffffffffffffffffffffffffffffffffffffffffffffffff19161491505061323d565b600190505b949350505050565b61324f83836132c3565b61325c60008484846130bd565b61329b576040517f08c379a000000000000000000000000000000000000000000000000000000000815260040161329290614d2e565b60405180910390fd5b505050565b6000808273ffffffffffffffffffffffffffffffffffffffff163b119050919050565b600073ffffffffffffffffffffffffffffffffffffffff168273ffffffffffffffffffffffffffffffffffffffff161415613333576040517f08c379a000000000000000000000000000000000000000000000000000000000815260040161332a9061512b565b60405180910390fd5b61333c81612253565b1561337c576040517f08c379a000000000000000000000000000000000000000000000000000000000815260040161337390615197565b60405180910390fd5b613388600083836130b3565b6001600360008473ffffffffffffffffffffffffffffffffffffffff1673ffffffffffffffffffffffffffffffffffffffff16815260200190815260200160002060008282546133d89190614bfa565b92505081905550816002600083815260200190815260200160002060006101000a81548173ffffffffffffffffffffffffffffffffffffffff021916908373ffffffffffffffffffffffffffffffffffffffff160217905550808273ffffffffffffffffffffffffffffffffffffffff16600073ffffffffffffffffffffffffffffffffffffffff167fddf252ad1be2c89b69c2b068fc378daa952ba7f163c4a11628f55a4df523b3ef60405160405180910390a4613499600083836130b8565b5050565b8280546134a990613f3a565b90600052602060002090601f0160209004810192826134cb5760008555613512565b82601f106134e457803560ff1916838001178555613512565b82800160010185558215613512579182015b828111156135115782358255916020019190600101906134f6565b5b50905061351f91906135a9565b5090565b82805461352f90613f3a565b90600052602060002090601f0160209004810192826135515760008555613598565b82601f1061356a57805160ff1916838001178555613598565b82800160010185558215613598579182015b8281111561359757825182559160200191906001019061357c565b5b5090506135a591906135a9565b5090565b5b808211156135c25760008160009055506001016135aa565b5090565b6000604051905090565b600080fd5b600080fd5b60007fffffffff0000000000000000000000000000000000000000000000000000000082169050919050565b61360f816135da565b811461361a57600080fd5b50565b60008135905061362c81613606565b92915050565b600060208284031215613648576136476135d0565b5b60006136568482850161361d565b91505092915050565b60008115159050919050565b6136748161365f565b82525050565b600060208201905061368f600083018461366b565b92915050565b600081519050919050565b600082825260208201905092915050565b60005b838110156136cf5780820151818401526020810190506136b4565b838111156136de576000848401525b50505050565b6000601f19601f8301169050919050565b600061370082613695565b61370a81856136a0565b935061371a8185602086016136b1565b613723816136e4565b840191505092915050565b6000602082019050818103600083015261374881846136f5565b905092915050565b6000819050919050565b61376381613750565b811461376e57600080fd5b50565b6000813590506137808161375a565b92915050565b60006020828403121561379c5761379b6135d0565b5b60006137aa84828501613771565b91505092915050565b600073ffffffffffffffffffffffffffffffffffffffff82169050919050565b60006137de826137b3565b9050919050565b6137ee816137d3565b82525050565b600060208201905061380960008301846137e5565b92915050565b613818816137d3565b811461382357600080fd5b50565b6000813590506138358161380f565b92915050565b60008060408385031215613852576138516135d0565b5b600061386085828601613826565b925050602061387185828601613771565b9150509250929050565b600080fd5b600080fd5b600080fd5b60008083601f8401126138a05761389f61387b565b5b8235905067ffffffffffffffff8111156138bd576138bc613880565b5b6020830191508360018202830111156138d9576138d8613885565b5b9250929050565b600080602083850312156138f7576138f66135d0565b5b600083013567ffffffffffffffff811115613915576139146135d5565b5b6139218582860161388a565b92509250509250929050565b600080600060608486031215613946576139456135d0565b5b600061395486828701613826565b935050602061396586828701613826565b925050604061397686828701613771565b9150509250925092565b600080fd5b7f4e487b7100000000000000000000000000000000000000000000000000000000600052604160045260246000fd5b6139bd826136e4565b810181811067ffffffffffffffff821117156139dc576139db613985565b5b80604052505050565b60006139ef6135c6565b90506139fb82826139b4565b919050565b600067ffffffffffffffff821115613a1b57613a1a613985565b5b613a24826136e4565b9050602081019050919050565b82818337600083830152505050565b6000613a53613a4e84613a00565b6139e5565b905082815260208101848484011115613a6f57613a6e613980565b5b613a7a848285613a31565b509392505050565b600082601f830112613a9757613a9661387b565b5b8135613aa7848260208601613a40565b91505092915050565b600060208284031215613ac657613ac56135d0565b5b600082013567ffffffffffffffff811115613ae457613ae36135d5565b5b613af084828501613a82565b91505092915050565b600060208284031215613b0f57613b0e6135d0565b5b6000613b1d84828501613826565b91505092915050565b613b2f81613750565b82525050565b6000602082019050613b4a6000830184613b26565b92915050565b60008060008060408587031215613b6a57613b696135d0565b5b600085013567ffffffffffffffff811115613b8857613b876135d5565b5b613b948782880161388a565b9450945050602085013567ffffffffffffffff811115613bb757613bb66135d5565b5b613bc38782880161388a565b925092505092959194509250565b6000613bdc826137b3565b9050919050565b613bec81613bd1565b82525050565b6000602082019050613c076000830184613be3565b92915050565b613c168161365f565b8114613c2157600080fd5b50565b600081359050613c3381613c0d565b92915050565b60008060408385031215613c5057613c4f6135d0565b5b6000613c5e85828601613826565b9250506020613c6f85828601613c24565b9150509250929050565b600067ffffffffffffffff821115613c9457613c93613985565b5b613c9d826136e4565b9050602081019050919050565b6000613cbd613cb884613c79565b6139e5565b905082815260208101848484011115613cd957613cd8613980565b5b613ce4848285613a31565b509392505050565b600082601f830112613d0157613d0061387b565b5b8135613d11848260208601613caa565b91505092915050565b60008060008060808587031215613d3457613d336135d0565b5b6000613d4287828801613826565b9450506020613d5387828801613826565b9350506040613d6487828801613771565b925050606085013567ffffffffffffffff811115613d8557613d846135d5565b5b613d9187828801613cec565b91505092959194509250565b60008060408385031215613db457613db36135d0565b5b6000613dc285828601613826565b9250506020613dd385828601613826565b9150509250929050565b600081519050919050565b600082825260208201905092915050565b6000819050602082019050919050565b600082825260208201905092915050565b6000613e2582613695565b613e2f8185613e09565b9350613e3f8185602086016136b1565b613e48816136e4565b840191505092915050565b6000613e5f8383613e1a565b905092915050565b6000602082019050919050565b6000613e7f82613ddd565b613e898185613de8565b935083602082028501613e9b85613df9565b8060005b85811015613ed75784840389528151613eb88582613e53565b9450613ec383613e67565b925060208a01995050600181019050613e9f565b50829750879550505050505092915050565b60006020820190508181036000830152613f038184613e74565b905092915050565b7f4e487b7100000000000000000000000000000000000000000000000000000000600052602260045260246000fd5b60006002820490506001821680613f5257607f821691505b60208210811415613f6657613f65613f0b565b5b50919050565b7f4552433732313a20617070726f76656420717565727920666f72206e6f6e657860008201527f697374656e7420746f6b656e0000000000000000000000000000000000000000602082015250565b6000613fc8602c836136a0565b9150613fd382613f6c565b604082019050919050565b60006020820190508181036000830152613ff781613fbb565b9050919050565b7f4552433732313a20617070726f76616c20746f2063757272656e74206f776e6560008201527f7200000000000000000000000000000000000000000000000000000000000000602082015250565b600061405a6021836136a0565b915061406582613ffe565b604082019050919050565b600060208201905081810360008301526140898161404d565b9050919050565b7f4552433732313a20617070726f76652063616c6c6572206973206e6f74206f7760008201527f6e6572206e6f7220617070726f76656420666f7220616c6c0000000000000000602082015250565b60006140ec6038836136a0565b91506140f782614090565b604082019050919050565b6000602082019050818103600083015261411b816140df565b9050919050565b600081905092915050565b60006141398385614122565b9350614146838584613a31565b82840190509392505050565b600061415f82848661412d565b91508190509392505050565b7f4552433732313a207472616e736665722063616c6c6572206973206e6f74206f60008201527f776e6572206e6f7220617070726f766564000000000000000000000000000000602082015250565b60006141c76031836136a0565b91506141d28261416b565b604082019050919050565b600060208201905081810360008301526141f6816141ba565b9050919050565b600081905092915050565b50565b60006142186000836141fd565b915061422382614208565b600082019050919050565b60006142398261420b565b9150819050919050565b7f4661696c656420746f207769746864726177204d617469630000000000000000600082015250565b60006142796018836136a0565b915061428482614243565b602082019050919050565b600060208201905081810360008301526142a88161426c565b9050919050565b7f4552433732313a206f776e657220717565727920666f72206e6f6e657869737460008201527f656e7420746f6b656e0000000000000000000000000000000000000000000000602082015250565b600061430b6029836136a0565b9150614316826142af565b604082019050919050565b6000602082019050818103600083015261433a816142fe565b9050919050565b7f4552433732313a2062616c616e636520717565727920666f7220746865207a6560008201527f726f206164647265737300000000000000000000000000000000000000000000602082015250565b600061439d602a836136a0565b91506143a882614341565b604082019050919050565b600060208201905081810360008301526143cc81614390565b9050919050565b7f45524337323155524953746f726167653a2055524920717565727920666f722060008201527f6e6f6e6578697374656e7420746f6b656e000000000000000000000000000000602082015250565b600061442f6031836136a0565b915061443a826143d3565b604082019050919050565b6000602082019050818103600083015261445e81614422565b9050919050565b600061447082613695565b61447a8185614122565b935061448a8185602086016136b1565b80840191505092915050565b60006144a28285614465565b91506144ae8284614465565b91508190509392505050565b60006144c683856136a0565b93506144d3838584613a31565b6144dc836136e4565b840190509392505050565b600060208201905081810360008301526145028184866144ba565b90509392505050565b7f4e6f7420656e6f756768204d6174696320706169640000000000000000000000600082015250565b60006145416015836136a0565b915061454c8261450b565b602082019050919050565b6000602082019050818103600083015261457081614534565b9050919050565b7f2e00000000000000000000000000000000000000000000000000000000000000600082015250565b60006145ad600183614122565b91506145b882614577565b600182019050919050565b60008190508160005260206000209050919050565b600081546145e581613f3a565b6145ef8186614122565b9450600182166000811461460a576001811461461b5761464e565b60ff1983168652818601935061464e565b614624856145c3565b60005b8381101561464657815481890152600182019150602081019050614627565b838801955050505b50505092915050565b600061466482858761412d565b915061466f826145a0565b915061467b82846145d8565b9150819050949350505050565b600061469482866145d8565b91506146a08285614465565b91506146ac82846145d8565b9150819050949350505050565b7f7b226e616d65223a202200000000000000000000000000000000000000000000600082015250565b60006146ef600a83614122565b91506146fa826146b9565b600a82019050919050565b7f222c20226465736372697074696f6e223a20224120646f6d61696e206f6e207460008201527f6865204e696e6a61206e616d652073657276696365222c2022696d616765223a60208201527f2022646174613a696d6167652f7376672b786d6c3b6261736536342c00000000604082015250565b6000614787605c83614122565b915061479282614705565b605c82019050919050565b7f222c226c656e677468223a220000000000000000000000000000000000000000600082015250565b60006147d3600c83614122565b91506147de8261479d565b600c82019050919050565b7f227d000000000000000000000000000000000000000000000000000000000000600082015250565b600061481f600283614122565b915061482a826147e9565b600282019050919050565b6000614840826146e2565b915061484c8286614465565b91506148578261477a565b91506148638285614465565b915061486e826147c6565b915061487a8284614465565b915061488582614812565b9150819050949350505050565b7f646174613a6170706c69636174696f6e2f6a736f6e3b6261736536342c000000600082015250565b60006148c8601d83614122565b91506148d382614892565b601d82019050919050565b60006148e9826148bb565b91506148f58284614465565b915081905092915050565b6000604082019050818103600083015261491b8185876144ba565b905061492a6020830184613b26565b949350505050565b7f4e487b7100000000000000000000000000000000000000000000000000000000600052603260045260246000fd5b7f4e487b7100000000000000000000000000000000000000000000000000000000600052601160045260246000fd5b600061499b82613750565b91507fffffffffffffffffffffffffffffffffffffffffffffffffffffffffffffffff8214156149ce576149cd614961565b5b600182019050919050565b600060408201905081810360008301526149f381856136f5565b90508181036020830152614a0781846136f5565b90509392505050565b7f4552433732313a206f70657261746f7220717565727920666f72206e6f6e657860008201527f697374656e7420746f6b656e0000000000000000000000000000000000000000602082015250565b6000614a6c602c836136a0565b9150614a7782614a10565b604082019050919050565b60006020820190508181036000830152614a9b81614a5f565b9050919050565b7f4552433732313a207472616e736665722066726f6d20696e636f72726563742060008201527f6f776e6572000000000000000000000000000000000000000000000000000000602082015250565b6000614afe6025836136a0565b9150614b0982614aa2565b604082019050919050565b60006020820190508181036000830152614b2d81614af1565b9050919050565b7f4552433732313a207472616e7366657220746f20746865207a65726f2061646460008201527f7265737300000000000000000000000000000000000000000000000000000000602082015250565b6000614b906024836136a0565b9150614b9b82614b34565b604082019050919050565b60006020820190508181036000830152614bbf81614b83565b9050919050565b6000614bd182613750565b9150614bdc83613750565b925082821015614bef57614bee614961565b5b828203905092915050565b6000614c0582613750565b9150614c1083613750565b9250827fffffffffffffffffffffffffffffffffffffffffffffffffffffffffffffffff03821115614c4557614c44614961565b5b828201905092915050565b7f4552433732313a20617070726f766520746f2063616c6c657200000000000000600082015250565b6000614c866019836136a0565b9150614c9182614c50565b602082019050919050565b60006020820190508181036000830152614cb581614c79565b9050919050565b7f4552433732313a207472616e7366657220746f206e6f6e20455243373231526560008201527f63656976657220696d706c656d656e7465720000000000000000000000000000602082015250565b6000614d186032836136a0565b9150614d2382614cbc565b604082019050919050565b60006020820190508181036000830152614d4781614d0b565b9050919050565b7f4552433732314d657461646174613a2055524920717565727920666f72206e6f60008201527f6e6578697374656e7420746f6b656e0000000000000000000000000000000000602082015250565b6000614daa602f836136a0565b9150614db582614d4e565b604082019050919050565b60006020820190508181036000830152614dd981614d9d565b9050919050565b7f4e487b7100000000000000000000000000000000000000000000000000000000600052601260045260246000fd5b6000614e1a82613750565b9150614e2583613750565b925082614e3557614e34614de0565b5b828204905092915050565b6000614e4b82613750565b9150614e5683613750565b925082614e6657614e65614de0565b5b828206905092915050565b60006080820190508181036000830152614e8b81876136f5565b90508181036020830152614e9f81866136f5565b90508181036040830152614eb381856136f5565b9050614ec26060830184613b26565b95945050505050565b6000614ed682613750565b9150614ee183613750565b9250817fffffffffffffffffffffffffffffffffffffffffffffffffffffffffffffffff0483118215151615614f1a57614f19614961565b5b828202905092915050565b7f45524337323155524953746f726167653a2055524920736574206f66206e6f6e60008201527f6578697374656e7420746f6b656e000000000000000000000000000000000000602082015250565b6000614f81602e836136a0565b9150614f8c82614f25565b604082019050919050565b60006020820190508181036000830152614fb081614f74565b9050919050565b60006060820190508181036000830152614fd181866136f5565b9050614fe06020830185613b26565b8181036040830152614ff281846136f5565b9050949350505050565b600081519050919050565b600082825260208201905092915050565b600061502382614ffc565b61502d8185615007565b935061503d8185602086016136b1565b615046816136e4565b840191505092915050565b600060808201905061506660008301876137e5565b61507360208301866137e5565b6150806040830185613b26565b81810360608301526150928184615018565b905095945050505050565b6000815190506150ac81613606565b92915050565b6000602082840312156150c8576150c76135d0565b5b60006150d68482850161509d565b91505092915050565b7f4552433732313a206d696e7420746f20746865207a65726f2061646472657373600082015250565b60006151156020836136a0565b9150615120826150df565b602082019050919050565b6000602082019050818103600083015261514481615108565b9050919050565b7f4552433732313a20746f6b656e20616c7265616479206d696e74656400000000600082015250565b6000615181601c836136a0565b915061518c8261514b565b602082019050919050565b600060208201905081810360008301526151b081615174565b905091905056fe5265676973746572696e672025732e2573206f6e2074686520636f6e7472616374207769746820746f6b656e49442025644142434445464748494a4b4c4d4e4f505152535455565758595a6162636465666768696a6b6c6d6e6f707172737475767778797a303132333435363738392b2fa26469706673582212200979359cc6145c5d105d4f9f32a292970fd7be16727eaec865ccf786fb79ba2664736f6c634300080a00333c73766720786d6c6e733d22687474703a2f2f7777772e77332e6f72672f323030302f737667222077696474683d2232373022206865696768743d22323730222066696c6c3d226e6f6e65223e3c706174682066696c6c3d2275726c282342292220643d224d302030683237307632373048307a222f3e3c646566733e3c66696c7465722069643d22412220636f6c6f722d696e746572706f6c6174696f6e2d66696c746572733d2273524742222066696c746572556e6974733d227573657253706163654f6e55736522206865696768743d22323730222077696474683d22323730223e3c666544726f70536861646f772064783d2230222064793d22312220737464446576696174696f6e3d22322220666c6f6f642d6f7061636974793d222e323235222077696474683d223230302522206865696768743d2232303025222f3e3c2f66696c7465723e3c2f646566733e3c7061746820643d224d37322e3836332034322e393439632d2e3636382d2e3338372d312e3432362d2e35392d322e3139372d2e3539732d312e3532392e3230342d322e3139372e35396c2d31302e30383120362e3033322d362e383520332e3933342d31302e30383120362e303332632d2e3636382e3338372d312e3432362e35392d322e3139372e3539732d312e3532392d2e3230342d322e3139372d2e35396c2d382e3031332d342e37323161342e353220342e35322030203020312d312e3538392d312e363136632d2e3338342d2e3636352d2e3539342d312e3431382d2e3630382d322e313837762d392e3331632d2e3031332d2e3737352e3138352d312e3533382e3537322d322e32303861342e323520342e323520302030203120312e3632352d312e3539356c372e3838342d342e3539632e3636382d2e33383720312e3432362d2e353920322e3139372d2e353973312e3532392e32303420322e3139372e35396c372e38383420342e353961342e353220342e353220302030203120312e35383920312e363136632e3338342e3636352e35393420312e3431382e36303820322e31383776362e3033326c362e38352d342e303635762d362e303332632e3031332d2e3737352d2e3138352d312e3533382d2e3537322d322e32303861342e323520342e32352030203020302d312e3632352d312e3539354c34312e3435362032342e3539632d2e3636382d2e3338372d312e3432362d2e35392d322e3139372d2e3539732d312e3532392e3230342d322e3139372e35396c2d31342e38363420382e36353561342e323520342e32352030203020302d312e36323520312e353935632d2e3338372e36372d2e35383520312e3433342d2e35373220322e3230387631372e343431632d2e3031332e3737352e31383520312e3533382e35373220322e32303861342e323520342e323520302030203020312e36323520312e3539356c31342e38363420382e363535632e3636382e33383720312e3432362e353920322e3139372e353973312e3532392d2e32303420322e3139372d2e35396c31302e3038312d352e39303120362e38352d342e3036352031302e3038312d352e393031632e3636382d2e33383720312e3432362d2e353920322e3139372d2e353973312e3532392e32303420322e3139372e35396c372e38383420342e353961342e353220342e353220302030203120312e35383920312e363136632e3338342e3636352e35393420312e3431382e36303820322e31383776392e333131632e3031332e3737352d2e31383520312e3533382d2e35373220322e32303861342e323520342e32352030203020312d312e36323520312e3539356c2d372e38383420342e373231632d2e3636382e3338372d312e3432362e35392d322e3139372e3539732d312e3532392d2e3230342d322e3139372d2e35396c2d372e3838342d342e353961342e353220342e35322030203020312d312e3538392d312e363136632d2e3338352d2e3636352d2e3539342d312e3431382d2e3630382d322e313837762d362e3033326c2d362e383520342e30363576362e303332632d2e3031332e3737352e31383520312e3533382e35373220322e32303861342e323520342e323520302030203020312e36323520312e3539356c31342e38363420382e363535632e3636382e33383720312e3432362e353920322e3139372e353973312e3532392d2e32303420322e3139372d2e35396c31342e3836342d382e363535632e3635372d2e33393420312e3230342d2e393520312e3538392d312e363136732e3539342d312e3431382e3630392d322e3138375635352e353338632e3031332d2e3737352d2e3138352d312e3533382d2e3537322d322e32303861342e323520342e32352030203020302d312e3632352d312e3539356c2d31342e3939332d382e3738367a222066696c6c3d2223666666222f3e3c646566733e3c6c696e6561724772616469656e742069643d2242222078313d2230222079313d2230222078323d22323730222079323d2232373022206772616469656e74556e6974733d227573657253706163654f6e557365223e3c73746f702073746f702d636f6c6f723d2223636235656565222f3e3c73746f70206f66667365743d2231222073746f702d636f6c6f723d2223306364376534222073746f702d6f7061636974793d222e3939222f3e3c2f6c696e6561724772616469656e743e3c2f646566733e3c7465787420783d2233322e352220793d223233312220666f6e742d73697a653d223237222066696c6c3d2223666666222066696c7465723d2275726c282341292220666f6e742d66616d696c793d22506c7573204a616b617274612053616e732c44656a6156752053616e732c4e6f746f20436f6c6f7220456d6f6a692c4170706c6520436f6c6f7220456d6f6a692c73616e732d73657269662220666f6e742d7765696768743d22626f6c64223e",
  "linkReferences": {},
  "deployedLinkReferences": {}
}